{
  "contractName": "TradeSettlement",
  "abi": [
    {
      "anonymous": false,
      "inputs": [
        {
          "indexed": false,
          "internalType": "uint256",
          "name": "tradeId",
          "type": "uint256"
        },
        {
          "indexed": true,
          "internalType": "address",
          "name": "buyer",
          "type": "address"
        },
        {
          "indexed": true,
          "internalType": "address",
          "name": "seller",
          "type": "address"
        },
        {
          "indexed": false,
          "internalType": "uint256",
          "name": "quantity",
          "type": "uint256"
        },
        {
          "indexed": false,
          "internalType": "uint256",
          "name": "price",
          "type": "uint256"
        },
        {
          "indexed": false,
          "internalType": "uint256",
          "name": "timestamp",
          "type": "uint256"
        }
      ],
      "name": "TradeRecorded",
      "type": "event"
    },
    {
      "inputs": [
        {
          "internalType": "uint256",
          "name": "",
          "type": "uint256"
        }
      ],
      "name": "trades",
      "outputs": [
        {
          "internalType": "uint256",
          "name": "tradeId",
          "type": "uint256"
        },
        {
          "internalType": "address",
          "name": "buyer",
          "type": "address"
        },
        {
          "internalType": "address",
          "name": "seller",
          "type": "address"
        },
        {
          "internalType": "uint256",
          "name": "quantity",
          "type": "uint256"
        },
        {
          "internalType": "uint256",
          "name": "price",
          "type": "uint256"
        },
        {
          "internalType": "uint256",
          "name": "timestamp",
          "type": "uint256"
        }
      ],
      "stateMutability": "view",
      "type": "function",
      "constant": true
    },
    {
      "inputs": [
        {
          "internalType": "uint256",
          "name": "_tradeId",
          "type": "uint256"
        },
        {
          "internalType": "address",
          "name": "_buyer",
          "type": "address"
        },
        {
          "internalType": "address",
          "name": "_seller",
          "type": "address"
        },
        {
          "internalType": "uint256",
          "name": "_quantity",
          "type": "uint256"
        },
        {
          "internalType": "uint256",
          "name": "_price",
          "type": "uint256"
        }
      ],
      "name": "recordTrade",
      "outputs": [],
      "stateMutability": "nonpayable",
      "type": "function"
    },
    {
      "inputs": [
        {
          "internalType": "uint256",
          "name": "index",
          "type": "uint256"
        }
      ],
      "name": "getTrade",
      "outputs": [
        {
          "internalType": "uint256",
          "name": "tradeId",
          "type": "uint256"
        },
        {
          "internalType": "address",
          "name": "buyer",
          "type": "address"
        },
        {
          "internalType": "address",
          "name": "seller",
          "type": "address"
        },
        {
          "internalType": "uint256",
          "name": "quantity",
          "type": "uint256"
        },
        {
          "internalType": "uint256",
          "name": "price",
          "type": "uint256"
        },
        {
          "internalType": "uint256",
          "name": "timestamp",
          "type": "uint256"
        }
      ],
      "stateMutability": "view",
      "type": "function",
      "constant": true
    },
    {
      "inputs": [],
      "name": "getTradesCount",
      "outputs": [
        {
          "internalType": "uint256",
          "name": "",
          "type": "uint256"
        }
      ],
      "stateMutability": "view",
      "type": "function",
      "constant": true
    }
  ],
  "bytecode": "0x608060405234801561001057600080fd5b5061064c806100206000396000f3fe608060405234801561001057600080fd5b506004361061004c5760003560e01c80631e6c598e146100515780632db25e05146100865780633aaa18a4146100bb5780637328d569146100d9575b600080fd5b61006b6004803603810190610066919061042d565b6100f5565b60405161007d96959493929190610506565b60405180910390f35b6100a0600480360381019061009b919061042d565b610181565b6040516100b296959493929190610506565b60405180910390f35b6100c3610249565b6040516100d091906104eb565b60405180910390f35b6100f360048036038101906100ee9190610456565b610255565b005b6000818154811061010557600080fd5b90600052602060002090600602016000915090508060000154908060010160009054906101000a900473ffffffffffffffffffffffffffffffffffffffff16908060020160009054906101000a900473ffffffffffffffffffffffffffffffffffffffff16908060030154908060040154908060050154905086565b60008060008060008060008088815481106101c5577f4e487b7100000000000000000000000000000000000000000000000000000000600052603260045260246000fd5b9060005260206000209060060201905080600001548160010160009054906101000a900473ffffffffffffffffffffffffffffffffffffffff168260020160009054906101000a900473ffffffffffffffffffffffffffffffffffffffff168360030154846004015485600501549650965096509650965096505091939550919395565b60008080549050905090565b60006040518060c001604052808781526020018673ffffffffffffffffffffffffffffffffffffffff1681526020018573ffffffffffffffffffffffffffffffffffffffff1681526020018481526020018381526020014281525090806001815401808255809150506001900390600052602060002090600602016000909190919091506000820151816000015560208201518160010160006101000a81548173ffffffffffffffffffffffffffffffffffffffff021916908373ffffffffffffffffffffffffffffffffffffffff16021790555060408201518160020160006101000a81548173ffffffffffffffffffffffffffffffffffffffff021916908373ffffffffffffffffffffffffffffffffffffffff160217905550606082015181600301556080820151816004015560a0820151816005015550508273ffffffffffffffffffffffffffffffffffffffff168473ffffffffffffffffffffffffffffffffffffffff167fad42c1c3985f411aa1a9bd8e4907acf7d529d0fee9af7528457f7f49b26f07fc878585426040516103f49493929190610567565b60405180910390a35050505050565b600081359050610412816105e8565b92915050565b600081359050610427816105ff565b92915050565b60006020828403121561043f57600080fd5b600061044d84828501610418565b91505092915050565b600080600080600060a0868803121561046e57600080fd5b600061047c88828901610418565b955050602061048d88828901610403565b945050604061049e88828901610403565b93505060606104af88828901610418565b92505060806104c088828901610418565b9150509295509295909350565b6104d6816105ac565b82525050565b6104e5816105de565b82525050565b600060208201905061050060008301846104dc565b92915050565b600060c08201905061051b60008301896104dc565b61052860208301886104cd565b61053560408301876104cd565b61054260608301866104dc565b61054f60808301856104dc565b61055c60a08301846104dc565b979650505050505050565b600060808201905061057c60008301876104dc565b61058960208301866104dc565b61059660408301856104dc565b6105a360608301846104dc565b95945050505050565b60006105b7826105be565b9050919050565b600073ffffffffffffffffffffffffffffffffffffffff82169050919050565b6000819050919050565b6105f1816105ac565b81146105fc57600080fd5b50565b610608816105de565b811461061357600080fd5b5056fea2646970667358221220399e7cbc064de2a4fd1fca6c712102162dc6a7d8a2af09777f2b391ea220737d64736f6c63430008000033",
  "immutableReferences": {},
  "source": "// SPDX License Identifier:MIT\r\npragma solidity ^0.8.0;\r\n\r\ncontract TradeSettlement{\r\n    struct Trade{\r\n        uint256 tradeId;\r\n        address buyer;\r\n        address seller;\r\n        uint256 quantity;\r\n        uint256 price;\r\n        uint256 timestamp;\r\n    }\r\n\r\n    Trade[] public trades;\r\n\r\n    event TradeRecorded(\r\n        uint256 tradeId,\r\n        address indexed buyer,\r\n        address indexed seller,\r\n        uint256 quantity,\r\n        uint256 price,\r\n        uint256 timestamp\r\n    );\r\n\r\n    function recordTrade(\r\n        uint256 _tradeId,\r\n        address _buyer,\r\n        address _seller,\r\n        uint256 _quantity,\r\n        uint256 _price\r\n    ) public {\r\n        trades.push(Trade({\r\n            tradeId: _tradeId,\r\n            buyer: _buyer,\r\n            seller: _seller,\r\n            quantity: _quantity,\r\n            price: _price,\r\n            timestamp: block.timestamp\r\n        })\r\n        );\r\n        emit TradeRecorded(_tradeId,_buyer,_seller,_quantity,_price,block.timestamp);\r\n    }\r\n    function getTrade(uint256 index) public view returns (\r\n        uint256 tradeId,\r\n        address buyer,\r\n        address seller,\r\n        uint256 quantity,\r\n        uint256 price,\r\n        uint256 timestamp\r\n    ){\r\n        Trade storage trade = trades[index];\r\n        return (\r\n        trade.tradeId,\r\n        trade.buyer,\r\n        trade.seller,\r\n        trade.quantity,\r\n        trade.price,\r\n        trade.timestamp\r\n    );\r\n    }\r\n    function getTradesCount() public view returns (uint256){\r\n        return trades.length;\r\n    }\r\n}\r\n\r\n",
  "sourcePath": "C:\\Users\\alkh\\IdeaProjects\\trade_settlement\\src\\main\\java\\org\\example\\trade_settlement\\blockchain-integration\\truffle\\contracts\\TradeSettlement.sol",
  "compiler": {
    "name": "solc",
    "version": "0.8.0+commit.c7dfd78e.Emscripten.clang"
  },
  "schemaVersion": "3.4.16",
  "updatedAt": "2024-12-15T21:22:36.890Z",
  "networkType": "ethereum",
  "devdoc": {
    "kind": "dev",
    "methods": {},
    "version": 1
  },
  "userdoc": {
    "kind": "user",
    "methods": {},
    "version": 1
  }
}